:400000000010002011000000C1030000C103000080B500AF00F0D8F980B584B000AF021CFB1D1A70204A3B1C0B3312781A701F4A3B1C0A3312781A700423013BFB6018E0A0
:400040001B4B1868391C0B31FA68131C5B009B18C3185B780B70164B1868391C0A31FA68131C5B009B18C3189B780B70FB68013BFB60FB68002B0ADB0D4B1968FA68131CF1
:400080005B009B185B5CFA1D12789A42D8D9094B3A1C0B3212781A60074B3A1C0A3212781A60BD4604B080BDCCF1FF0FCDF1FF0FCC0000201CFF0B4020FF0B4080B500AF4F
:4000C000164B164A12688021C9020A431A601820FFF7A2FF124B19221A60052000F0E4FA104B114A1278D2B21A60052000F0F0FA0A4B0A4A11680D4A0A401A600C4B0D4A96
:400100001A600D4B10221A600C4B802212061A600B4B0C4A1A60BD4680BDC04600010B402CFF0B4028FF0B40E5F1FF0FFFFFFBFF04010B40060000802002024008010B40AC
:40014000000002401700008080B582B000AF72B6FB1D00221A7023E0FB1D1A78131C5B009B185B00444A9B183B603B681A78597809020A43997809040A43DB781B061343F0
:400180001A1C3B6819795B791B020B439BB2101C191C00F097F9FB1D1A78FB1D01321A70FB1D1B78012BD7D9344A354B101C191C00F098F9334B344A1A60344B344A1A6094
:4001C000344BEE2212021A60334B24221A60334B334A1A60334B09221A60334B334A1A60334B01221A60334BD82212011A60324B324A1A60324B334A1A60334B8222120557
:400200001A60324B2D4A1A60314B324A1A60324B802212041A60314B284A1A60304B802292021A602F4B992212041A602E4B2F4A1A602F4B2E4A1278D2B202210A43D2B2FD
:400240001A702C4B2B4A1278D2B23C218A43D2B214210A43D2B21A70254B254A1278D2B216210A43D2B21A70FFF728FF00F07AF9BD4602B080BDC046A8070000B40700005B
:40028000D4070000000001400003300004000140033000000C00014000000440080004408013270000010440080104404E9CD800080204400803044000500F4004009900B3
:4002C00004500F40000080A208500F4010500F4014500F400000288A18500F4020500F4024500F4030500F40200105401999090000700F4001700F4010B5064C2378002BF9
:4003000007D1054B002B02D0044800E000BF0123237010BDE000002000000000A007000008B5084B002B03D00748084900E000BF07480368002B03D0064B002B00D0984752
:4003400008BDC04600000000A0070000E4000020C80000200000000080B582B000AF00F039F900F065F9021CBB1D1A80BB1D1A88114B9A4218D9BB1D1A88FA23DB009A4218
:4003800012D8BB1D1A880D4B9A4206D9012000F0B3F9012000F064F90DE0002000F0ACF9002000F05DF906E0002000F059F9002000F0A2F9D5E7D4E7E7030000DC0500005E
:4003C00080B500AFFEE7C04680B586B000AF224B7B61224B3B61204B7B6135E03B691B68FB603B695B68BB603B699B683B6000237B600CE0FB681A68BB681A60BB6804335A
:40040000BB60FB680433FB607B6804337B607A683B689A42EED13B69DB683B6000237B6008E0BB6800221A60BB680433BB607B6804337B607A683B689A42F2D13B691033FB
:400440003B617B69013B7B617B69002BC6D100F079F9FFF781FFFEE701000000C008000080B582B000AF00237B600FE07B68032B04D8104B7A689200D35800E00E4B0F4A3C
:40048000796889008B507B6801337B607B682F2BECD9FFF759FE0A4B00221A608023DB058022D205126801210A431A60BD4602B080BDC04600000000C1030000000000208A
:4004C000C000002080B582B000AF786039607A683B68101C00211A1C00F05AF9BD4602B080BDC04680B586B000AF7860396000233B6100237B612EE07B699B007A68D318AF
:400500001B68BB603B1C0F33BA681A70BB68FF229343BB6017E03B695B003A68D3181B781A1CBB68D3183A69520039688A1852781A703B6901333B613B1C0F331A783B1CC7
:400540000F33013A1A703B1C0F331B78002BE2D17B6901337B617B69072BCDD9BD4606B080BDC04680B500AFBD4680BD80B500AF094B802292041A60084B4D221A60022052
:4005800000F062F8064B181C00F044F8002000F033F8BD4680BDC0460001054024010540FFFF000090B583B000AFFC1D00F086F8031C2370064B064A126801210A431A60AD
:4005C000FB1D1B78181C00F07DF8BD4603B090BD0000054080B500AF064B1B78002B04D1FFF7C4FF034B01221A70FFF7DBFFBD4680BDC046FC00002080B582B000AF7860D3
:40060000034B7A681204120C1A60BD4602B080BD0801054080B582B000AF7860034B7A681204120C1A60BD4602B080BD1401054080B500AF034B1B681B041B0C181CBD4652
:4006400080BDC0460C01054080B582B000AF7860024B7A681A60BD4602B080BD3801054080B584B000AF021CFB1D1A700D4B1B68D9B23B1C0F337F220A401A70FB1D1B78E7
:40068000DB01D9B23B1C0F333A1C0F3212780A431A70044B3A1C0F3212781A60BD4604B080BDC046000104400230800804D0C0460138FDD1C046C046C0467047EFF3108043
:4006C00072B6704780F310887047C046C046C04680B582B000AF021CBB1D1A80BB1D1B88044A12785343181CFFF7DEFFBD4602B080BDC046D800002080B584B000AF021C8B
:40070000FB1D1A700E4B1B68DAB23B1C0F3340218A431A70FB1D1B789B01DAB240231340D9B23B1C0F333A1C0F3212780A431A70034B3A1C0F3212781A60BD4604B080BDDC
:400740000001044070B50E4B0E4D0024ED1AAD101E1CAC4204D0A300F35898470134F8E700F09CF8084B094D0024ED1AAD101E1CAC4204D0A300F35898470134F8E770BD77
:40078000A8080000A8080000A8080000B0080000031C8218934202D019700133FAE77047000000000400000000300F40000400400F40000405310F4011320F4020330F40E9
:4007C0000E400F4018410F4002420F4003430F4002600F40814088088908E080E4200280061008550AAA0E0116081A401E0426022E20300C32C0340336303E5558045F01B3
:4008000004020508060807020C080E05158017081D801E101F21800182088308860487028B208D808E109180920197029908A008AE01B701C0F0C2E0C4A0E290E610EA4074
:400840000604080809400C805A806308820488088940C080C2D0D480D840E0800308071008080D080E0253045B20800882018310850887088B048E408F209680AC80B704DB
:40088000C060C2B0D4A0E060E4E0E8100001C0087C019001DE01020111010000F8B5C046F8BC08BC9E4670472103000061040000F8B5C046F8BC08BC9E467047F90200005B
:4008C000D0080000C8000020180000002000000000000000C0F1FF0F00366E01C05D0000180000000000E02E00000000000000000000000000000000000000000000000059
:4009000000000000000000000000000000000000000000000000000000000000000000000000000000000000000000000000000000000000000000000000000000000000B7
:400940000000000000000000000000000000000000000000000000000000000000000000000000000000000000000000000000000000000000000000000000000000000077
:400980000000000000000000000000000000000000000000000000000000000000000000000000000000000000000000000000000000000000000000000000000000000037
:4009C00000000000000000000000000000000000000000000000000000000000000000000000000000000000000000000000000000000000000000000000000000000000F7
:0200000490303A
:02000000D9CB5A
:0200000490402A
:200000000000000000000000000000000000000000000000000000000000000000000000E0
:0200000490501A
:0C000000000204C81193110104CAEB5E59
:0200000490600A
:0100000001FE
:00000001FF