:400000000010002011000000890300008903000080B500AF00F0BCF980B584B000AF021CFB1D1A70224A3B1C0B3312781A70214A3B1C0A3312781A701F4B1B68013BFB605A
:400040001AE01E4B1868391C0B31FA68131C5B009B18C31801331B780B70184B1868391C0A31FA68131C5B009B18C31802331B780B70FB68013BFB60FB68002B0ADB0F4B59
:400080001968FA68131C5B009B185B5CFA1D12789A42D6D90A4B3A1C0B3212781A60094B3A1C0A3212781A60BD4604B080BDC046CCF1FF0FCDF1FF0FC0110000CC00002019
:4000C0001CFF0B4020FF0B4080B500AF194B194A12688021C9020A431A601820FFF79CFF154B19221A60052000F0EAFA134B144A1278D2B21A60052000F09AFB0D4B0D4A64
:400100001168104A0A401A600F4B20221A600F4B10221A600E4B822212061A600D4B802212061A600C4B0D4A1A600D4B0D4A1A60BD4680BD00010B402CFF0B4028FF0B402C
:40014000E5F1FF0FFFFFFBFF080202401C02024008010B4004010B400000024007000080400002401000008080B582B000AF72B6FB1D00221A7023E0FB1D1A78131C5B003F
:400180009B185B00364A9B183B603B681A78597809020A43997809040A43DB781B0613431A1C3B6819795B791B020B439BB2101C191C00F071F9FB1DFA1D127801321A70A8
:4001C000FB1D1B78012BD7D9264A274B101C191C00F072F9254BE022D2021A60244BEE2212021A60234B99221A60234B90221A60224BC02252031A60214B90221A60214BAE
:40020000D82212011A60204B02221A601F4B31221A601F4B02221A601E4B992212041A601D4B802292041A601C4B992212041A601B4B1B4A1278D2B202210A43D2B21A7018
:40024000174B174A1278D2B206210A43D2B21A70FFF73AFF00F070F9BD4602B080BDC0468C11000098110000A8110000040001400C00014010000140000104400801044037
:40028000180104400803044000040440080404401804044010500F4018500F4030500F4000700F4010B5064C2378002B07D10548002802D0044800E000BF0121217010BD3F
:4002C000E0000020000000008011000008B5084B002B03D00748084900E000BF07480168002903D0064A002A00D0904708BDC0460000000080110000E4000020C800002003
:400300000000000080B582B000AF00F059F9144B0020191C00F0BCFC00F0E6FC00F0ECFD002000F0F7FD031C1A1CBB1D1A80BB1D1B88DB089BB23A1D191C8900CB185B0095
:4003400013803B1D1B88074A101C191C00F0B2FC0A2000F049FA012000F00CFEE0E7C046690300008411000080B582B000AF78600A1CFB1C1A70FB1C1B78181C00F036F9A7
:40038000BD4602B080BDC04680B500AFFEE7C04680B586B000AF254B7B61254B3B61234B7B61234B3B6132E03B691B68FB603B695B68BB603B699B683B6000237B600CE06E
:4003C000FB681A68BB681A60BB680433BB60FB680433FB607B6804337B607A683B689A42EED13B69DB683B6000237B6008E0BB6800221A60BB680433BB607B6804337B606B
:400400007A683B689A42F2D13B6910333B617B695A1E9341DBB27A69013A7A61002BC3D100F07EFEFFF76EFFFEE7C04601000000EC11000080B582B000AF00237B600FE0E5
:400440007B68032B04D8104B7A689200D35800E00E4B0F4A796889008B507B6801337B607B682F2BECD9FFF77FFE0A4B00221A608023DB058022D205126801210A431A6007
:40048000BD4602B080BDC046000000008903000000000020C000002080B582B000AF786039607A683B68101C00211A1C00F05EFEBD4602B080BDC04680B586B000AF7860F3
:4004C000396000233B6100237B612EE07B699B007A68D3181B68BB603B1C0F33BA681A70BB68FF229343BB6017E03B695B003A68D3181B781A1CBB68D3183A695200396843
:400500008A1852781A703B6901333B613B1C0F333A1C0F321278013A1A703B1C0F331B78002BE2D17B6901337B617B69032BCDD9BD4606B080BDC04680B500AF044B80224B
:4005400012031A60012000F005F8BD4680BDC04600031A4080B584B000AF021CFB1D1A700B4B1B68FB60FB1D1B78002B05D0FB68802212061343FB6003E0FB685B005B08B2
:40058000FB60034BFA681A60BD4604B080BDC04680031A4080B500AF00F03EF8BD4680BD80B500AF054B054A1268802109060A431A6000F017F8BD4680BDC0460000064096
:4005C00080B500AF064B1B78002B04D1FFF7E2FF034B01221A70FFF7E3FFBD4680BDC046FC00002080B500AFBD4680BD80B582B000AF7860C046064B1A680F231340082B84
:40060000F9D0044B7A681A60BD4602B080BDC046080206404002064080B500AF174B184A1A60184B00221A60174B01221A60174B174A1A60174B07221A60174B00221A6016
:40064000164B01221A60164B114A1A60154B00221A60154B00221A60144B00221A60144B00221A60134B00221A60134B00221A60124B00221A60BD4680BDC04600000640DF
:400680000B000002400006404800064000030640070000800403064010030640440006400002064004020640880E0640C80E0640480F0640080F0640C80F0640880F064099
:4006C0000230800804D0C0460138FDD1C046C0467047EFF3108072B6704780F31088704780B584B000AF021C3960FB1D1A7080239B05FB60FB1D1B781F2B02D9002000F09A
:4007000069F8FB1D1B7810339B00FA68D3181B68BB60FB1D1B7810339B00FA68D3183A681A60BB68181CBD4604B080BD90B587B000AF0A1CFB1D011C1970BB1D1A70BB1D5E
:400740001B78032B02D9002000F044F8FB1D1B781F2B02D9002000F03DF8FB1D1A7803231340DB0006337B613C1C1334FFF7B1FF031C2370FB1D1B789B08DBB29B0014499F
:400780005B181B68FB607B690322111C99400B1CDA43FB681340FB60BB1D1A787B69111C99400B1CFA681343FB60FB1D1B789B08DBB29B00064A9B18FA681A603B1C133304
:4007C0001B78181CFFF789FFBD4607B090BDC04600E400E080B582B000AF021CFB1D1A7001BEBD4602B080BD80B582B000AF786008E00C4B1B68181CFFF762FF7B680A4AEA
:400800009B187B607A6880231B029A42F1D8074B1B687A685343181CFFF752FFBD4602B080BDC046DC0000200080FFFFD400002080B582B000AF021CBB1D1A80BB1D1B8894
:40084000044A12785343181CFFF73AFFBD4602B080BDC046D800002080B588B000AFF860B9607A603B600023FB610123BB6103E0BB69BA685343BB61F868B96900F0A0FB0E
:40088000031C1A1CBB689A42F2D232E0F868B96900F096FB031C7B61FB68181CB96900F0D3FB0B1CFB60B869B96800F089FB031CBB61FB69002B05D17B69002B02DCBB69B0
:4008C000002B16D17B69092B06DD7B68002B01D0372300E0572300E030237A69D2B29B18DAB23B681A703B6801333B60FB690133FB61BB69002BC9D13B6800221A70BD46B1
:4009000008B080BD80B582B000AF786039607B68002B08DA7B685B427B603B682D221A703B6801333B607A683B68101C0A210022FFF792FFBD4602B080BDC04680B582B01E
:4009400000AF021CFB1D1A70FB1D1B782F2B07D9FB1D1B78392B03D8FB1D1B78303B19E0FB1D1B78602B07D9FB1D1B78662B03D8FB1D1B78573B0DE0FB1D1B78402B07D9DD
:40098000FB1D1B78462B03D8FB1D1B78373B01E001235B42181CBD4602B080BD80B588B000AFB9607A603B603B1C0F33021C1A70BB681B68FB610023BB6111E07A697B6878
:4009C0009A4219DCBB697A685A437B69D318BB613B1C0F33FA6912781A70FB690133FB613B1C0F331B78181CFFF7A8FF031C7B617B69002BE2DA00E0C046BB68FA691A60EB
:400A00003B68BA691A603B1C0F331B78181CBD4608B080BD80B586B000AFF860B9607A601A1CFB1C1A70FB1C1B78002B01D0302300E020233A1C133213703B6A7B6102E045
:400A40007B68013B7B607B691B785A1E9341DBB27A6901327A61002B0CD07B68002BEFDC08E0F9683B1C13331A78BB68081C111C984700E0C0467B68DA17D31ADB0FDBB272
:400A80007A68013A7A60002BEBD107E0F9683B1C12331A78BB68081C111C98473B1C12333A6A12781A703B1C12331B785A1E9341DBB23A6A01323A62002BE7D1BD4606B024
:400AC00080BDC04690B58DB002AFF860B9607A603B60CAE03B1C27331B78252B08D0F9683B1C27331A78BB68081C111C9847BCE03B1C263300221A7000237B617B683A1C5D
:400B000027321978117001337B603B1C27331B78302B0AD17B683A1C27321978117001337B603B1C263301221A703B1C27331B782F2B13D93B1C27331B78392B0ED83C1C41
:400B400027343B1C273319783A1D3B1C1433081C111C0A22FFF722FF031C23703B1C27331B78642B2AD00BDC582B3DD005DC002B00D18AE0252B6ED076E0632B52D073E02B
:400B8000752B04D0782B2FD0732B56D06CE03B681A1D3A601A683B1C1833101C0A210022FFF75AFE7A69F868B9683B1C26331B783C1C18340094FFF72DFF56E03B681A1D9F
:400BC0003A601A683B1C1833101C191CFFF79AFE7A69F868B9683B1C26331B783C1C18340094FFF717FF40E03B681A1D3A6019683B1C27331B78583B5A425341DBB21A1C7E
:400C00003B1C1833081C1021FFF726FE7A69F868B9683B1C26331B783C1C18340094FFF7F9FE22E03B681A1D3A601B68DAB2F968BB68081C111C984717E07A693B68191DEB
:400C400039601868F968BB680090081C191C0023FFF7E0FE09E0F9683B1C27331A78BB68081C111C984700E0C0467B683A1C2732197811703A1C27321278511E8A41D2B296
:400C800001337B60002A00D024E7BD460BB090BD80B582B000AF78603960044B3A681A60034B7A681A60BD4602B080BD04010020080100200FB480B582B000AF3B1C1433C2
:400CC0007B60074B1868074B19683A697B68FFF7F9FEBD4602B080BC08BC04B01847C046080100200401002080B500AF064B1B78002B04D100F00AF8034B01221A7000F040
:400D0000EBF8BD4680BDC0460C01002090B585B000AF0E200321FFF709FD564B0E20191CFFF7DEFC544B01221A60544B544A1A60544B554A1A60554B554A1A60554B0022EC
:400D40001A60554B554A1A60554B544A1A60554B544A1268802149020A431A60524B00221A60524B00221A60514B01221A60514B02221A60504B1B687B607B6801221343E3
:400D80007B604D4B7A681A600023FB606BE04B4BFA689200D258DC239B0113407B60FB689B00474A9B187A681A60444BFA689200D258012313400AD03B4B3B4A1168FA689C
:400DC0000120041C9440221C92B20A431A603B4BFA689200D258022313400AD0334B334A1168FA680120041C9440221C92B20A431A60324BFA689200D25880239B0013403F
:400E000003D080235B00BB6002E080235B01BB602A4BFA689200D25880235B00134005D1284BFA6852000021D15209E0BB68002B00DA01335B1099B2224BFA685200D15266
:400E4000BB68214A5343214A9B18181C204900F005F9031C9BB219B21E4BFA689200D150FB680133FB60FB68002B90D0BD4605B090BDC046590F000020001A4000001A40C9
:400E80005002005104001A407400008018001A400000FF071C001A4010001A400400040014001A4000031A4028021A4038021A4018021A40000F1A4030001A40C4110000BE
:400EC00080001A401401002010270000E40C0000C81900001001002080B500AF054B054A1268802109060A431A600A20FFF7A0FCBD4680BD00001A4080B500AF044B044A5F
:400F00001268802149020A431A60BD4680BDC04604001A4080B584B000AF78607B68002B02D00020FFF756FC7B68002B08D17B689B00084A9B181B681B041B0CFB6001E039
:400F40000023FB60FB689BB21BB2181CBD4604B080BDC04680011A4080B582B000AF044B1B687B60024B7A681A60BD4602B080BD10021A4080B584B000AF021CFB1D1A70CB
:400F80000E4B1B68DAB23B1C0F3340218A431A70FB1D1B789B01DAB240231340D9B23B1C0F333A1C0F3212780A431A70034B3A1C0F3212781A60BD4604B080BD00010440B1
:400FC000002934D00123002210B488422CD301242407A14204D2814202D209011B01F8E7E400A14204D2814202D249005B00F8E7884201D3401A1A434C08A04202D3001B1A
:401000005C0822438C08A04202D3001B9C082243CC08A04202D3001BDC082243002803D01B0901D00909E3E7101C10BC7047002801D00020C04307B4024802A14018029060
:4010400003BDC046D90000000029F0D003B5FFF7B9FF0EBC4243891A1847C046002941D010B4041C4C40A44601230022002900D54942002800D5404288422CD30124240730
:40108000A14204D2814202D209011B01F8E7E400A14204D2814202D249005B00F8E7884201D3401A1A434C08A04202D3001B5C0822438C08A04202D3001B9C082243CC089D
:4010C000A04202D3001BDC082243002803D01B0901D00909E3E7101C6446002C00D5404210BC7047002806D003DB0020C043400801E08020000607B4024802A140180290CD
:4011000003BDC046190000000029EBD003B5FFF7A7FF0EBC4243891A1847C0467047C04670B50E4B0E4D0024E81A85101E1CAC4204D0A100725890470134F8E700F044F872
:401140000849094A0E1C541AA5100024AC4204D0A300F05880470134F8E770BDD4110000D4110000D4110000DC11000000B58218031C934202D019700133FAE700BD000099
:401180000000000025750D0A0000000000300F40000400400F40000404300F4001310F4001330F4005410F4030013E0158045F011A80AA406220A220AA20D840EE80000008
:4011C0000400000000000000F8B5C046F8BC08BC9E467047CD02000035040000F8B5C046F8BC08BC9E467047A502000000120000C800002018000000380000000000000066
:4012000000000000C0F1FF0F00366E01C05D0000180000000000E02E0000000000000000000000000000000000000000000000000000000000000000000000000000000007
:40124000000000000000000000000000000000000000000000000000000000000000000000000000000000000000000000000000000000000000000000000000000000006E
:40128000000000000000000000000000000000000000000000000000000000000000000000000000000000000000000000000000000000000000000000000000000000002E
:4012C00000000000000000000000000000000000000000000000000000000000000000000000000000000000000000000000000000000000000000000000000000000000EE
:4013000000000000000000000000000000000000000000000000000000000000000000000000000000000000000000000000000000000000000000000000000000000000AD
:0200000490303A
:02000000068375
:0200000490402A
:200000000000000000000000000000000000000000000000000000000000000000000000E0
:0200000490501A
:0C000000000204C81193110104CE181670
:0200000490600A
:0100000001FE
:00000001FF